8=FIX.4.1|9=78|35=A|34=1|49=ordermatchserver|52=20110227-20:47:33|56=rustyclient|98=0|108=10|10=186|8=FIX.4.1|9=66|35=0|34=2|49=ordermatchserver|52=20110227-20:47:43|56=rustyclient|10=145|8=FIX.4.1|9=66|35=0|34=3|49=ordermatchserver|52=20110227-20:47:53|56=rustyclient|10=147|8=FIX.4.1|9=66|35=0|34=4|49=ordermatchserver|52=20110227-20:48:03|56=rustyclient|10=144|8=FIX.4.1|9=66|35=0|34=5|49=ordermatchserver|52=20110227-20:48:13|56=rustyclient|10=146|8=FIX.4.1|9=66|35=0|34=6|49=ordermatchserver|52=20110227-20:48:23|56=rustyclient|10=148|8=FIX.4.1|9=99|35=3|34=7|49=ordermatchserver|52=20110227-20:48:30|56=rustyclient|45=7|58=Unsupported message type|10=181|8=FIX.4.1|9=66|35=0|34=8|49=ordermatchserver|52=20110227-20:48:40|56=rustyclient|10=149|8=FIX.4.1|9=66|35=0|34=9|49=ordermatchserver|52=20110227-20:48:50|56=rustyclient|10=151|8=FIX.4.1|9=67|35=0|34=10|49=ordermatchserver|52=20110227-20:49:00|56=rustyclient|10=188|8=FIX.4.1|9=67|35=0|34=11|49=ordermatchserver|52=20110227-20:49:10|56=rustyclient|10=190|8=FIX.4.1|9=67|35=5|34=12|49=ordermatchserver|52=20110227-20:49:11|56=rustyclient|10=197|8=FIX.4.1|9=79|35=A|34=13|49=ordermatchserver|52=20110227-20:49:21|56=rustyclient|98=0|108=10|10=237|8=FIX.4.1|9=67|35=0|34=14|49=ordermatchserver|52=20110227-20:49:31|56=rustyclient|10=196|8=FIX.4.1|9=67|35=5|34=15|49=ordermatchserver|52=20110227-20:49:40|56=rustyclient|10=202|