8=FIX.4.1|9=78|35=A|34=1|49=rustyclient|52=20110227-20:47:33|56=ordermatchserver|98=0|108=10|10=186|8=FIX.4.1|9=66|35=0|34=2|49=rustyclient|52=20110227-20:47:43|56=ordermatchserver|10=145|8=FIX.4.1|9=66|35=0|34=3|49=rustyclient|52=20110227-20:47:53|56=ordermatchserver|10=147|8=FIX.4.1|9=66|35=0|34=4|49=rustyclient|52=20110227-20:48:03|56=ordermatchserver|10=144|8=FIX.4.1|9=66|35=0|34=5|49=rustyclient|52=20110227-20:48:13|56=ordermatchserver|10=146|8=FIX.4.1|9=66|35=0|34=6|49=rustyclient|52=20110227-20:48:23|56=ordermatchserver|10=148|8=FIX.4.1|9=102|35=D|34=7|49=rustyclient|52=20110227-20:48:30|56=ordermatchserver|11=2|21=1|38=3|40=1|54=1|55=OP|59=0|10=028|8=FIX.4.1|9=66|35=0|34=8|49=rustyclient|52=20110227-20:48:40|56=ordermatchserver|10=149|8=FIX.4.1|9=66|35=0|34=9|49=rustyclient|52=20110227-20:48:50|56=ordermatchserver|10=151|8=FIX.4.1|9=67|35=0|34=10|49=rustyclient|52=20110227-20:49:00|56=ordermatchserver|10=188|8=FIX.4.1|9=67|35=0|34=11|49=rustyclient|52=20110227-20:49:11|56=ordermatchserver|10=191|8=FIX.4.1|9=67|35=5|34=12|49=rustyclient|52=20110227-20:49:11|56=ordermatchserver|10=197|8=FIX.4.1|9=79|35=A|34=13|49=rustyclient|52=20110227-20:49:21|56=ordermatchserver|98=0|108=10|10=237|8=FIX.4.1|9=67|35=0|34=14|49=rustyclient|52=20110227-20:49:31|56=ordermatchserver|10=196|8=FIX.4.1|9=67|35=5|34=15|49=rustyclient|52=20110227-20:49:40|56=ordermatchserver|10=202|